{
	"data": {
		"bytecode": {
			"linkReferences": {},
			"object": "6080604052600060015534801561001557600080fd5b50611a4c806100256000396000f3fe6080604052600436106100705760003560e01c8063850da4d81161004e578063850da4d814610100578063929cf4f11461013e578063cadef9051461017b578063e7cc5fcf1461019757610070565b8063357fbffb1461007557806343aec97d146100a057806376cc5bde146100bc575b600080fd5b34801561008157600080fd5b5061008a6101c2565b6040516100979190610fe6565b60405180910390f35b6100ba60048036038101906100b59190611048565b6104de565b005b3480156100c857600080fd5b506100e360048036038101906100de9190611048565b61072a565b6040516100f79897969594939291906110dd565b60405180910390f35b34801561010c57600080fd5b5061012760048036038101906101229190611048565b61083a565b604051610135929190611240565b60405180910390f35b34801561014a57600080fd5b50610165600480360381019061016091906113d8565b61094a565b604051610172919061146f565b60405180910390f35b61019560048036038101906101909190611048565b610a05565b005b3480156101a357600080fd5b506101ac610b6f565b6040516101b9919061146f565b60405180910390f35b6060600060015467ffffffffffffffff8111156101e2576101e16112ad565b5b60405190808252806020026020018201604052801561021b57816020015b610208610b75565b8152602001906001900390816102005790505b50905060005b6001548110156104d6576000806000838152602001908152602001600020905080604051806101400160405290816000820160009054906101000a900473ffffffffffffffffffffffffffffffffffffffff1673ffffffffffffffffffffffffffffffffffffffff1673ffffffffffffffffffffffffffffffffffffffff1681526020016001820160009054906101000a900473ffffffffffffffffffffffffffffffffffffffff1673ffffffffffffffffffffffffffffffffffffffff1673ffffffffffffffffffffffffffffffffffffffff16815260200160028201805461030a906114b9565b80601f0160208091040260200160405190810160405280929190818152602001828054610336906114b9565b80156103835780601f1061035857610100808354040283529160200191610383565b820191906000526020600020905b81548152906001019060200180831161036657829003601f168201915b5050505050815260200160038201548152602001600482015481526020016005820154815260200160068201548152602001600782015481526020016008820180548060200260200160405190810160405280929190818152602001828054801561044357602002820191906000526020600020905b8160009054906101000a900473ffffffffffffffffffffffffffffffffffffffff1673ffffffffffffffffffffffffffffffffffffffff16815260200190600101908083116103f9575b505050505081526020016009820180548060200260200160405190810160405280929190818152602001828054801561049b57602002820191906000526020600020905b815481526020019060010190808311610487575b5050505050815250508383815181106104b7576104b66114ea565b5b60200260200101819052505080806104ce90611548565b915050610221565b508091505090565b60008060008381526020019081526020016000209050338160010160006101000a81548173ffffffffffffffffffffffffffffffffffffffff021916908373ffffffffffffffffffffffffffffffffffffffff160217905550600034905081600301548114610582576040517f08c379a000000000000000000000000000000000000000000000000000000000815260040161057990611628565b60405180910390fd5b816008018260010160009054906101000a900473ffffffffffffffffffffffffffffffffffffffff169080600181540180825580915050600190039060005260206000200160009091909190916101000a81548173ffffffffffffffffffffffffffffffffffffffff021916908373ffffffffffffffffffffffffffffffffffffffff16021790555060008260000160009054906101000a900473ffffffffffffffffffffffffffffffffffffffff1673ffffffffffffffffffffffffffffffffffffffff168260405161065590611679565b60006040518083038185875af1925050503d8060008114610692576040519150601f19603f3d011682016040523d82523d6000602084013e610697565b606091505b5050905080156107245760648360050154846004015485600301546106bc919061168e565b6106c6919061168e565b6106d091906116ff565b8360060181905550826006015483600701546106ec9190611730565b836007018190555082600901836007015490806001815401808255809150506001900390600052602060002001600090919091909150555b50505050565b60006020528060005260406000206000915090508060000160009054906101000a900473ffffffffffffffffffffffffffffffffffffffff16908060010160009054906101000a900473ffffffffffffffffffffffffffffffffffffffff1690806002018054610799906114b9565b80601f01602080910402602001604051908101604052809291908181526020018280546107c5906114b9565b80156108125780601f106107e757610100808354040283529160200191610812565b820191906000526020600020905b8154815290600101906020018083116107f557829003601f168201915b5050505050908060030154908060040154908060050154908060060154908060070154905088565b606080600080848152602001908152602001600020600801600080858152602001908152602001600020600901818054806020026020016040519081016040528092919081815260200182805480156108e857602002820191906000526020600020905b8160009054906101000a900473ffffffffffffffffffffffffffffffffffffffff1673ffffffffffffffffffffffffffffffffffffffff168152602001906001019080831161089e575b505050505091508080548060200260200160405190810160405280929190818152602001828054801561093a57602002820191906000526020600020905b815481526020019060010190808311610926575b5050505050905091509150915091565b60008060008060015481526020019081526020016000209050868160000160006101000a81548173ffffffffffffffffffffffffffffffffffffffff021916908373ffffffffffffffffffffffffffffffffffffffff160217905550858160020190816109b79190611910565b50848160030181905550838160040181905550828160050181905550600160008154809291906109e690611548565b9190505550600180546109f991906119e2565b91505095945050505050565b6000806000838152602001908152602001600020905060005b8160080180549050811015610b6a573373ffffffffffffffffffffffffffffffffffffffff16826008018281548110610a5a57610a596114ea565b5b9060005260206000200160009054906101000a900473ffffffffffffffffffffffffffffffffffffffff1673ffffffffffffffffffffffffffffffffffffffff16148015610aab5750428260050154145b610ab457600080fd5b60008260070154905060008111610aca57600080fd5b60003373ffffffffffffffffffffffffffffffffffffffff1682604051610af090611679565b60006040518083038185875af1925050503d8060008114610b2d576040519150601f19603f3d011682016040523d82523d6000602084013e610b32565b606091505b505090508015610b5557818460070154610b4c91906119e2565b84600701819055505b50508080610b6290611548565b915050610a1e565b505050565b60015481565b604051806101400160405280600073ffffffffffffffffffffffffffffffffffffffff168152602001600073ffffffffffffffffffffffffffffffffffffffff16815260200160608152602001600081526020016000815260200160008152602001600081526020016000815260200160608152602001606081525090565b600081519050919050565b600082825260208201905092915050565b6000819050602082019050919050565b600073ffffffffffffffffffffffffffffffffffffffff82169050919050565b6000610c4b82610c20565b9050919050565b610c5b81610c40565b82525050565b600081519050919050565b600082825260208201905092915050565b60005b83811015610c9b578082015181840152602081019050610c80565b60008484015250505050565b6000601f19601f8301169050919050565b6000610cc382610c61565b610ccd8185610c6c565b9350610cdd818560208601610c7d565b610ce681610ca7565b840191505092915050565b6000819050919050565b610d0481610cf1565b82525050565b600081519050919050565b600082825260208201905092915050565b6000819050602082019050919050565b6000610d428383610c52565b60208301905092915050565b6000602082019050919050565b6000610d6682610d0a565b610d708185610d15565b9350610d7b83610d26565b8060005b83811015610dac578151610d938882610d36565b9750610d9e83610d4e565b925050600181019050610d7f565b5085935050505092915050565b600081519050919050565b600082825260208201905092915050565b6000819050602082019050919050565b6000610df18383610cfb565b60208301905092915050565b6000602082019050919050565b6000610e1582610db9565b610e1f8185610dc4565b9350610e2a83610dd5565b8060005b83811015610e5b578151610e428882610de5565b9750610e4d83610dfd565b925050600181019050610e2e565b5085935050505092915050565b600061014083016000830151610e816000860182610c52565b506020830151610e946020860182610c52565b5060408301518482036040860152610eac8282610cb8565b9150506060830151610ec16060860182610cfb565b506080830151610ed46080860182610cfb565b5060a0830151610ee760a0860182610cfb565b5060c0830151610efa60c0860182610cfb565b5060e0830151610f0d60e0860182610cfb565b50610100830151848203610100860152610f278282610d5b565b915050610120830151848203610120860152610f438282610e0a565b9150508091505092915050565b6000610f5c8383610e68565b905092915050565b6000602082019050919050565b6000610f7c82610bf4565b610f868185610bff565b935083602082028501610f9885610c10565b8060005b85811015610fd45784840389528151610fb58582610f50565b9450610fc083610f64565b925060208a01995050600181019050610f9c565b50829750879550505050505092915050565b600060208201905081810360008301526110008184610f71565b905092915050565b6000604051905090565b600080fd5b600080fd5b61102581610cf1565b811461103057600080fd5b50565b6000813590506110428161101c565b92915050565b60006020828403121561105e5761105d611012565b5b600061106c84828501611033565b91505092915050565b61107e81610c40565b82525050565b600082825260208201905092915050565b60006110a082610c61565b6110aa8185611084565b93506110ba818560208601610c7d565b6110c381610ca7565b840191505092915050565b6110d781610cf1565b82525050565b6000610100820190506110f3600083018b611075565b611100602083018a611075565b81810360408301526111128189611095565b905061112160608301886110ce565b61112e60808301876110ce565b61113b60a08301866110ce565b61114860c08301856110ce565b61115560e08301846110ce565b9998505050505050505050565b600082825260208201905092915050565b600061117e82610d0a565b6111888185611162565b935061119383610d26565b8060005b838110156111c45781516111ab8882610d36565b97506111b683610d4e565b925050600181019050611197565b5085935050505092915050565b600082825260208201905092915050565b60006111ed82610db9565b6111f781856111d1565b935061120283610dd5565b8060005b8381101561123357815161121a8882610de5565b975061122583610dfd565b925050600181019050611206565b5085935050505092915050565b6000604082019050818103600083015261125a8185611173565b9050818103602083015261126e81846111e2565b90509392505050565b61128081610c40565b811461128b57600080fd5b50565b60008135905061129d81611277565b92915050565b600080fd5b600080fd5b7f4e487b7100000000000000000000000000000000000000000000000000000000600052604160045260246000fd5b6112e582610ca7565b810181811067ffffffffffffffff82111715611304576113036112ad565b5b80604052505050565b6000611317611008565b905061132382826112dc565b919050565b600067ffffffffffffffff821115611343576113426112ad565b5b61134c82610ca7565b9050602081019050919050565b82818337600083830152505050565b600061137b61137684611328565b61130d565b905082815260208101848484011115611397576113966112a8565b5b6113a2848285611359565b509392505050565b600082601f8301126113bf576113be6112a3565b5b81356113cf848260208601611368565b91505092915050565b600080600080600060a086880312156113f4576113f3611012565b5b60006114028882890161128e565b955050602086013567ffffffffffffffff81111561142357611422611017565b5b61142f888289016113aa565b945050604061144088828901611033565b935050606061145188828901611033565b925050608061146288828901611033565b9150509295509295909350565b600060208201905061148460008301846110ce565b92915050565b7f4e487b7100000000000000000000000000000000000000000000000000000000600052602260045260246000fd5b600060028204905060018216806114d157607f821691505b6020821081036114e4576114e361148a565b5b50919050565b7f4e487b7100000000000000000000000000000000000000000000000000000000600052603260045260246000fd5b7f4e487b7100000000000000000000000000000000000000000000000000000000600052601160045260246000fd5b600061155382610cf1565b91507fffffffffffffffffffffffffffffffffffffffffffffffffffffffffffffffff820361158557611584611519565b5b600182019050919050565b7f546865206465706f736974656420616d6f756e742073686f756c64206265206560008201527f7175616c20746f206f722067726561746572207468616e207072696e6369706160208201527f6c00000000000000000000000000000000000000000000000000000000000000604082015250565b6000611612604183611084565b915061161d82611590565b606082019050919050565b6000602082019050818103600083015261164181611605565b9050919050565b600081905092915050565b50565b6000611663600083611648565b915061166e82611653565b600082019050919050565b600061168482611656565b9150819050919050565b600061169982610cf1565b91506116a483610cf1565b92508282026116b281610cf1565b915082820484148315176116c9576116c8611519565b5b5092915050565b7f4e487b7100000000000000000000000000000000000000000000000000000000600052601260045260246000fd5b600061170a82610cf1565b915061171583610cf1565b925082611725576117246116d0565b5b828204905092915050565b600061173b82610cf1565b915061174683610cf1565b925082820190508082111561175e5761175d611519565b5b92915050565b60008190508160005260206000209050919050565b60006020601f8301049050919050565b600082821b905092915050565b6000600883026117c67fffffffffffffffffffffffffffffffffffffffffffffffffffffffffffffffff82611789565b6117d08683611789565b95508019841693508086168417925050509392505050565b6000819050919050565b600061180d61180861180384610cf1565b6117e8565b610cf1565b9050919050565b6000819050919050565b611827836117f2565b61183b61183382611814565b848454611796565b825550505050565b600090565b611850611843565b61185b81848461181e565b505050565b5b8181101561187f57611874600082611848565b600181019050611861565b5050565b601f8211156118c45761189581611764565b61189e84611779565b810160208510156118ad578190505b6118c16118b985611779565b830182611860565b50505b505050565b600082821c905092915050565b60006118e7600019846008026118c9565b1980831691505092915050565b600061190083836118d6565b9150826002028217905092915050565b61191982610c61565b67ffffffffffffffff811115611932576119316112ad565b5b61193c82546114b9565b611947828285611883565b600060209050601f83116001811461197a5760008415611968578287015190505b61197285826118f4565b8655506119da565b601f19841661198886611764565b60005b828110156119b05784890151825560018201915060208501945060208101905061198b565b868310156119cd57848901516119c9601f8916826118d6565b8355505b6001600288020188555050505b505050505050565b60006119ed82610cf1565b91506119f883610cf1565b9250828203905081811115611a1057611a0f611519565b5b9291505056fea2646970667358221220bd1b1abebc05a8a0f5c8c610ffb420b5f0482ca806f5aa81793a45c9b661af8f64736f6c63430008120033",
			"opcodes": "PUSH1 0x80 PUSH1 0x40 MSTORE PUSH1 0x0 PUSH1 0x1 SSTORE CALLVALUE DUP1 ISZERO PUSH2 0x15 JUMPI PUSH1 0x0 DUP1 REVERT JUMPDEST POP PUSH2 0x1A4C DUP1 PUSH2 0x25 PUSH1 0x0 CODECOPY PUSH1 0x0 RETURN INVALID PUSH1 0x80 PUSH1 0x40 MSTORE PUSH1 0x4 CALLDATASIZE LT PUSH2 0x70 JUMPI PUSH1 0x0 CALLDATALOAD PUSH1 0xE0 SHR DUP1 PUSH4 0x850DA4D8 GT PUSH2 0x4E JUMPI DUP1 PUSH4 0x850DA4D8 EQ PUSH2 0x100 JUMPI DUP1 PUSH4 0x929CF4F1 EQ PUSH2 0x13E JUMPI DUP1 PUSH4 0xCADEF905 EQ PUSH2 0x17B JUMPI DUP1 PUSH4 0xE7CC5FCF EQ PUSH2 0x197 JUMPI PUSH2 0x70 JUMP JUMPDEST DUP1 PUSH4 0x357FBFFB EQ PUSH2 0x75 JUMPI DUP1 PUSH4 0x43AEC97D EQ PUSH2 0xA0 JUMPI DUP1 PUSH4 0x76CC5BDE EQ PUSH2 0xBC JUMPI JUMPDEST PUSH1 0x0 DUP1 REVERT JUMPDEST CALLVALUE DUP1 ISZERO PUSH2 0x81 JUMPI PUSH1 0x0 DUP1 REVERT JUMPDEST POP PUSH2 0x8A PUSH2 0x1C2 JUMP JUMPDEST PUSH1 0x40 MLOAD PUSH2 0x97 SWAP2 SWAP1 PUSH2 0xFE6 JUMP JUMPDEST PUSH1 0x40 MLOAD DUP1 SWAP2 SUB SWAP1 RETURN JUMPDEST PUSH2 0xBA PUSH1 0x4 DUP1 CALLDATASIZE SUB DUP2 ADD SWAP1 PUSH2 0xB5 SWAP2 SWAP1 PUSH2 0x1048 JUMP JUMPDEST PUSH2 0x4DE JUMP JUMPDEST STOP JUMPDEST CALLVALUE DUP1 ISZERO PUSH2 0xC8 JUMPI PUSH1 0x0 DUP1 REVERT JUMPDEST POP PUSH2 0xE3 PUSH1 0x4 DUP1 CALLDATASIZE SUB DUP2 ADD SWAP1 PUSH2 0xDE SWAP2 SWAP1 PUSH2 0x1048 JUMP JUMPDEST PUSH2 0x72A JUMP JUMPDEST PUSH1 0x40 MLOAD PUSH2 0xF7 SWAP9 SWAP8 SWAP7 SWAP6 SWAP5 SWAP4 SWAP3 SWAP2 SWAP1 PUSH2 0x10DD JUMP JUMPDEST PUSH1 0x40 MLOAD DUP1 SWAP2 SUB SWAP1 RETURN JUMPDEST CALLVALUE DUP1 ISZERO PUSH2 0x10C JUMPI PUSH1 0x0 DUP1 REVERT JUMPDEST POP PUSH2 0x127 PUSH1 0x4 DUP1 CALLDATASIZE SUB DUP2 ADD SWAP1 PUSH2 0x122 SWAP2 SWAP1 PUSH2 0x1048 JUMP JUMPDEST PUSH2 0x83A JUMP JUMPDEST PUSH1 0x40 MLOAD PUSH2 0x135 SWAP3 SWAP2 SWAP1 PUSH2 0x1240 JUMP JUMPDEST PUSH1 0x40 MLOAD DUP1 SWAP2 SUB SWAP1 RETURN JUMPDEST CALLVALUE DUP1 ISZERO PUSH2 0x14A JUMPI PUSH1 0x0 DUP1 REVERT JUMPDEST POP PUSH2 0x165 PUSH1 0x4 DUP1 CALLDATASIZE SUB DUP2 ADD SWAP1 PUSH2 0x160 SWAP2 SWAP1 PUSH2 0x13D8 JUMP JUMPDEST PUSH2 0x94A JUMP JUMPDEST PUSH1 0x40 MLOAD PUSH2 0x172 SWAP2 SWAP1 PUSH2 0x146F JUMP JUMPDEST PUSH1 0x40 MLOAD DUP1 SWAP2 SUB SWAP1 RETURN JUMPDEST PUSH2 0x195 PUSH1 0x4 DUP1 CALLDATASIZE SUB DUP2 ADD SWAP1 PUSH2 0x190 SWAP2 SWAP1 PUSH2 0x1048 JUMP JUMPDEST PUSH2 0xA05 JUMP JUMPDEST STOP JUMPDEST CALLVALUE DUP1 ISZERO PUSH2 0x1A3 JUMPI PUSH1 0x0 DUP1 REVERT JUMPDEST POP PUSH2 0x1AC PUSH2 0xB6F JUMP JUMPDEST PUSH1 0x40 MLOAD PUSH2 0x1B9 SWAP2 SWAP1 PUSH2 0x146F JUMP JUMPDEST PUSH1 0x40 MLOAD DUP1 SWAP2 SUB SWAP1 RETURN JUMPDEST PUSH1 0x60 PUSH1 0x0 PUSH1 0x1 SLOAD PUSH8 0xFFFFFFFFFFFFFFFF DUP2 GT ISZERO PUSH2 0x1E2 JUMPI PUSH2 0x1E1 PUSH2 0x12AD JUMP JUMPDEST JUMPDEST PUSH1 0x40 MLOAD SWAP1 DUP1 DUP3 MSTORE DUP1 PUSH1 0x20 MUL PUSH1 0x20 ADD DUP3 ADD PUSH1 0x40 MSTORE DUP1 ISZERO PUSH2 0x21B JUMPI DUP2 PUSH1 0x20 ADD JUMPDEST PUSH2 0x208 PUSH2 0xB75 JUMP JUMPDEST DUP2 MSTORE PUSH1 0x20 ADD SWAP1 PUSH1 0x1 SWAP1 SUB SWAP1 DUP2 PUSH2 0x200 JUMPI SWAP1 POP JUMPDEST POP SWAP1 POP PUSH1 0x0 JUMPDEST PUSH1 0x1 SLOAD DUP2 LT ISZERO PUSH2 0x4D6 JUMPI PUSH1 0x0 DUP1 PUSH1 0x0 DUP4 DUP2 MSTORE PUSH1 0x20 ADD SWAP1 DUP2 MSTORE PUSH1 0x20 ADD PUSH1 0x0 KECCAK256 SWAP1 POP DUP1 PUSH1 0x40 MLOAD DUP1 PUSH2 0x140 ADD PUSH1 0x40 MSTORE SWAP1 DUP2 PUSH1 0x0 DUP3 ADD PUSH1 0x0 SWAP1 SLOAD SWAP1 PUSH2 0x100 EXP SWAP1 DIV PUSH20 0xFFFFFFFFFFFFFFFFFFFFFFFFFFFFFFFFFFFFFFFF AND PUSH20 0xFFFFFFFFFFFFFFFFFFFFFFFFFFFFFFFFFFFFFFFF AND PUSH20 0xFFFFFFFFFFFFFFFFFFFFFFFFFFFFFFFFFFFFFFFF AND DUP2 MSTORE PUSH1 0x20 ADD PUSH1 0x1 DUP3 ADD PUSH1 0x0 SWAP1 SLOAD SWAP1 PUSH2 0x100 EXP SWAP1 DIV PUSH20 0xFFFFFFFFFFFFFFFFFFFFFFFFFFFFFFFFFFFFFFFF AND PUSH20 0xFFFFFFFFFFFFFFFFFFFFFFFFFFFFFFFFFFFFFFFF AND PUSH20 0xFFFFFFFFFFFFFFFFFFFFFFFFFFFFFFFFFFFFFFFF AND DUP2 MSTORE PUSH1 0x20 ADD PUSH1 0x2 DUP3 ADD DUP1 SLOAD PUSH2 0x30A SWAP1 PUSH2 0x14B9 JUMP JUMPDEST DUP1 PUSH1 0x1F ADD PUSH1 0x20 DUP1 SWAP2 DIV MUL PUSH1 0x20 ADD PUSH1 0x40 MLOAD SWAP1 DUP2 ADD PUSH1 0x40 MSTORE DUP1 SWAP3 SWAP2 SWAP1 DUP2 DUP2 MSTORE PUSH1 0x20 ADD DUP3 DUP1 SLOAD PUSH2 0x336 SWAP1 PUSH2 0x14B9 JUMP JUMPDEST DUP1 ISZERO PUSH2 0x383 JUMPI DUP1 PUSH1 0x1F LT PUSH2 0x358 JUMPI PUSH2 0x100 DUP1 DUP4 SLOAD DIV MUL DUP4 MSTORE SWAP2 PUSH1 0x20 ADD SWAP2 PUSH2 0x383 JUMP JUMPDEST DUP3 ADD SWAP2 SWAP1 PUSH1 0x0 MSTORE PUSH1 0x20 PUSH1 0x0 KECCAK256 SWAP1 JUMPDEST DUP2 SLOAD DUP2 MSTORE SWAP1 PUSH1 0x1 ADD SWAP1 PUSH1 0x20 ADD DUP1 DUP4 GT PUSH2 0x366 JUMPI DUP3 SWAP1 SUB PUSH1 0x1F AND DUP3 ADD SWAP2 JUMPDEST POP POP POP POP POP DUP2 MSTORE PUSH1 0x20 ADD PUSH1 0x3 DUP3 ADD SLOAD DUP2 MSTORE PUSH1 0x20 ADD PUSH1 0x4 DUP3 ADD SLOAD DUP2 MSTORE PUSH1 0x20 ADD PUSH1 0x5 DUP3 ADD SLOAD DUP2 MSTORE PUSH1 0x20 ADD PUSH1 0x6 DUP3 ADD SLOAD DUP2 MSTORE PUSH1 0x20 ADD PUSH1 0x7 DUP3 ADD SLOAD DUP2 MSTORE PUSH1 0x20 ADD PUSH1 0x8 DUP3 ADD DUP1 SLOAD DUP1 PUSH1 0x20 MUL PUSH1 0x20 ADD PUSH1 0x40 MLOAD SWAP1 DUP2 ADD PUSH1 0x40 MSTORE DUP1 SWAP3 SWAP2 SWAP1 DUP2 DUP2 MSTORE PUSH1 0x20 ADD DUP3 DUP1 SLOAD DUP1 ISZERO PUSH2 0x443 JUMPI PUSH1 0x20 MUL DUP3 ADD SWAP2 SWAP1 PUSH1 0x0 MSTORE PUSH1 0x20 PUSH1 0x0 KECCAK256 SWAP1 JUMPDEST DUP2 PUSH1 0x0 SWAP1 SLOAD SWAP1 PUSH2 0x100 EXP SWAP1 DIV PUSH20 0xFFFFFFFFFFFFFFFFFFFFFFFFFFFFFFFFFFFFFFFF AND PUSH20 0xFFFFFFFFFFFFFFFFFFFFFFFFFFFFFFFFFFFFFFFF AND DUP2 MSTORE PUSH1 0x20 ADD SWAP1 PUSH1 0x1 ADD SWAP1 DUP1 DUP4 GT PUSH2 0x3F9 JUMPI JUMPDEST POP POP POP POP POP DUP2 MSTORE PUSH1 0x20 ADD PUSH1 0x9 DUP3 ADD DUP1 SLOAD DUP1 PUSH1 0x20 MUL PUSH1 0x20 ADD PUSH1 0x40 MLOAD SWAP1 DUP2 ADD PUSH1 0x40 MSTORE DUP1 SWAP3 SWAP2 SWAP1 DUP2 DUP2 MSTORE PUSH1 0x20 ADD DUP3 DUP1 SLOAD DUP1 ISZERO PUSH2 0x49B JUMPI PUSH1 0x20 MUL DUP3 ADD SWAP2 SWAP1 PUSH1 0x0 MSTORE PUSH1 0x20 PUSH1 0x0 KECCAK256 SWAP1 JUMPDEST DUP2 SLOAD DUP2 MSTORE PUSH1 0x20 ADD SWAP1 PUSH1 0x1 ADD SWAP1 DUP1 DUP4 GT PUSH2 0x487 JUMPI JUMPDEST POP POP POP POP POP DUP2 MSTORE POP POP DUP4 DUP4 DUP2 MLOAD DUP2 LT PUSH2 0x4B7 JUMPI PUSH2 0x4B6 PUSH2 0x14EA JUMP JUMPDEST JUMPDEST PUSH1 0x20 MUL PUSH1 0x20 ADD ADD DUP2 SWAP1 MSTORE POP POP DUP1 DUP1 PUSH2 0x4CE SWAP1 PUSH2 0x1548 JUMP JUMPDEST SWAP2 POP POP PUSH2 0x221 JUMP JUMPDEST POP DUP1 SWAP2 POP POP SWAP1 JUMP JUMPDEST PUSH1 0x0 DUP1 PUSH1 0x0 DUP4 DUP2 MSTORE PUSH1 0x20 ADD SWAP1 DUP2 MSTORE PUSH1 0x20 ADD PUSH1 0x0 KECCAK256 SWAP1 POP CALLER DUP2 PUSH1 0x1 ADD PUSH1 0x0 PUSH2 0x100 EXP DUP2 SLOAD DUP2 PUSH20 0xFFFFFFFFFFFFFFFFFFFFFFFFFFFFFFFFFFFFFFFF MUL NOT AND SWAP1 DUP4 PUSH20 0xFFFFFFFFFFFFFFFFFFFFFFFFFFFFFFFFFFFFFFFF AND MUL OR SWAP1 SSTORE POP PUSH1 0x0 CALLVALUE SWAP1 POP DUP2 PUSH1 0x3 ADD SLOAD DUP2 EQ PUSH2 0x582 JUMPI PUSH1 0x40 MLOAD PUSH32 0x8C379A000000000000000000000000000000000000000000000000000000000 DUP2 MSTORE PUSH1 0x4 ADD PUSH2 0x579 SWAP1 PUSH2 0x1628 JUMP JUMPDEST PUSH1 0x40 MLOAD DUP1 SWAP2 SUB SWAP1 REVERT JUMPDEST DUP2 PUSH1 0x8 ADD DUP3 PUSH1 0x1 ADD PUSH1 0x0 SWAP1 SLOAD SWAP1 PUSH2 0x100 EXP SWAP1 DIV PUSH20 0xFFFFFFFFFFFFFFFFFFFFFFFFFFFFFFFFFFFFFFFF AND SWAP1 DUP1 PUSH1 0x1 DUP2 SLOAD ADD DUP1 DUP3 SSTORE DUP1 SWAP2 POP POP PUSH1 0x1 SWAP1 SUB SWAP1 PUSH1 0x0 MSTORE PUSH1 0x20 PUSH1 0x0 KECCAK256 ADD PUSH1 0x0 SWAP1 SWAP2 SWAP1 SWAP2 SWAP1 SWAP2 PUSH2 0x100 EXP DUP2 SLOAD DUP2 PUSH20 0xFFFFFFFFFFFFFFFFFFFFFFFFFFFFFFFFFFFFFFFF MUL NOT AND SWAP1 DUP4 PUSH20 0xFFFFFFFFFFFFFFFFFFFFFFFFFFFFFFFFFFFFFFFF AND MUL OR SWAP1 SSTORE POP PUSH1 0x0 DUP3 PUSH1 0x0 ADD PUSH1 0x0 SWAP1 SLOAD SWAP1 PUSH2 0x100 EXP SWAP1 DIV PUSH20 0xFFFFFFFFFFFFFFFFFFFFFFFFFFFFFFFFFFFFFFFF AND PUSH20 0xFFFFFFFFFFFFFFFFFFFFFFFFFFFFFFFFFFFFFFFF AND DUP3 PUSH1 0x40 MLOAD PUSH2 0x655 SWAP1 PUSH2 0x1679 JUMP JUMPDEST PUSH1 0x0 PUSH1 0x40 MLOAD DUP1 DUP4 SUB DUP2 DUP6 DUP8 GAS CALL SWAP3 POP POP POP RETURNDATASIZE DUP1 PUSH1 0x0 DUP2 EQ PUSH2 0x692 JUMPI PUSH1 0x40 MLOAD SWAP2 POP PUSH1 0x1F NOT PUSH1 0x3F RETURNDATASIZE ADD AND DUP3 ADD PUSH1 0x40 MSTORE RETURNDATASIZE DUP3 MSTORE RETURNDATASIZE PUSH1 0x0 PUSH1 0x20 DUP5 ADD RETURNDATACOPY PUSH2 0x697 JUMP JUMPDEST PUSH1 0x60 SWAP2 POP JUMPDEST POP POP SWAP1 POP DUP1 ISZERO PUSH2 0x724 JUMPI PUSH1 0x64 DUP4 PUSH1 0x5 ADD SLOAD DUP5 PUSH1 0x4 ADD SLOAD DUP6 PUSH1 0x3 ADD SLOAD PUSH2 0x6BC SWAP2 SWAP1 PUSH2 0x168E JUMP JUMPDEST PUSH2 0x6C6 SWAP2 SWAP1 PUSH2 0x168E JUMP JUMPDEST PUSH2 0x6D0 SWAP2 SWAP1 PUSH2 0x16FF JUMP JUMPDEST DUP4 PUSH1 0x6 ADD DUP2 SWAP1 SSTORE POP DUP3 PUSH1 0x6 ADD SLOAD DUP4 PUSH1 0x7 ADD SLOAD PUSH2 0x6EC SWAP2 SWAP1 PUSH2 0x1730 JUMP JUMPDEST DUP4 PUSH1 0x7 ADD DUP2 SWAP1 SSTORE POP DUP3 PUSH1 0x9 ADD DUP4 PUSH1 0x7 ADD SLOAD SWAP1 DUP1 PUSH1 0x1 DUP2 SLOAD ADD DUP1 DUP3 SSTORE DUP1 SWAP2 POP POP PUSH1 0x1 SWAP1 SUB SWAP1 PUSH1 0x0 MSTORE PUSH1 0x20 PUSH1 0x0 KECCAK256 ADD PUSH1 0x0 SWAP1 SWAP2 SWAP1 SWAP2 SWAP1 SWAP2 POP SSTORE JUMPDEST POP POP POP POP JUMP JUMPDEST PUSH1 0x0 PUSH1 0x20 MSTORE DUP1 PUSH1 0x0 MSTORE PUSH1 0x40 PUSH1 0x0 KECCAK256 PUSH1 0x0 SWAP2 POP SWAP1 POP DUP1 PUSH1 0x0 ADD PUSH1 0x0 SWAP1 SLOAD SWAP1 PUSH2 0x100 EXP SWAP1 DIV PUSH20 0xFFFFFFFFFFFFFFFFFFFFFFFFFFFFFFFFFFFFFFFF AND SWAP1 DUP1 PUSH1 0x1 ADD PUSH1 0x0 SWAP1 SLOAD SWAP1 PUSH2 0x100 EXP SWAP1 DIV PUSH20 0xFFFFFFFFFFFFFFFFFFFFFFFFFFFFFFFFFFFFFFFF AND SWAP1 DUP1 PUSH1 0x2 ADD DUP1 SLOAD PUSH2 0x799 SWAP1 PUSH2 0x14B9 JUMP JUMPDEST DUP1 PUSH1 0x1F ADD PUSH1 0x20 DUP1 SWAP2 DIV MUL PUSH1 0x20 ADD PUSH1 0x40 MLOAD SWAP1 DUP2 ADD PUSH1 0x40 MSTORE DUP1 SWAP3 SWAP2 SWAP1 DUP2 DUP2 MSTORE PUSH1 0x20 ADD DUP3 DUP1 SLOAD PUSH2 0x7C5 SWAP1 PUSH2 0x14B9 JUMP JUMPDEST DUP1 ISZERO PUSH2 0x812 JUMPI DUP1 PUSH1 0x1F LT PUSH2 0x7E7 JUMPI PUSH2 0x100 DUP1 DUP4 SLOAD DIV MUL DUP4 MSTORE SWAP2 PUSH1 0x20 ADD SWAP2 PUSH2 0x812 JUMP JUMPDEST DUP3 ADD SWAP2 SWAP1 PUSH1 0x0 MSTORE PUSH1 0x20 PUSH1 0x0 KECCAK256 SWAP1 JUMPDEST DUP2 SLOAD DUP2 MSTORE SWAP1 PUSH1 0x1 ADD SWAP1 PUSH1 0x20 ADD DUP1 DUP4 GT PUSH2 0x7F5 JUMPI DUP3 SWAP1 SUB PUSH1 0x1F AND DUP3 ADD SWAP2 JUMPDEST POP POP POP POP POP SWAP1 DUP1 PUSH1 0x3 ADD SLOAD SWAP1 DUP1 PUSH1 0x4 ADD SLOAD SWAP1 DUP1 PUSH1 0x5 ADD SLOAD SWAP1 DUP1 PUSH1 0x6 ADD SLOAD SWAP1 DUP1 PUSH1 0x7 ADD SLOAD SWAP1 POP DUP9 JUMP JUMPDEST PUSH1 0x60 DUP1 PUSH1 0x0 DUP1 DUP5 DUP2 MSTORE PUSH1 0x20 ADD SWAP1 DUP2 MSTORE PUSH1 0x20 ADD PUSH1 0x0 KECCAK256 PUSH1 0x8 ADD PUSH1 0x0 DUP1 DUP6 DUP2 MSTORE PUSH1 0x20 ADD SWAP1 DUP2 MSTORE PUSH1 0x20 ADD PUSH1 0x0 KECCAK256 PUSH1 0x9 ADD DUP2 DUP1 SLOAD DUP1 PUSH1 0x20 MUL PUSH1 0x20 ADD PUSH1 0x40 MLOAD SWAP1 DUP2 ADD PUSH1 0x40 MSTORE DUP1 SWAP3 SWAP2 SWAP1 DUP2 DUP2 MSTORE PUSH1 0x20 ADD DUP3 DUP1 SLOAD DUP1 ISZERO PUSH2 0x8E8 JUMPI PUSH1 0x20 MUL DUP3 ADD SWAP2 SWAP1 PUSH1 0x0 MSTORE PUSH1 0x20 PUSH1 0x0 KECCAK256 SWAP1 JUMPDEST DUP2 PUSH1 0x0 SWAP1 SLOAD SWAP1 PUSH2 0x100 EXP SWAP1 DIV PUSH20 0xFFFFFFFFFFFFFFFFFFFFFFFFFFFFFFFFFFFFFFFF AND PUSH20 0xFFFFFFFFFFFFFFFFFFFFFFFFFFFFFFFFFFFFFFFF AND DUP2 MSTORE PUSH1 0x20 ADD SWAP1 PUSH1 0x1 ADD SWAP1 DUP1 DUP4 GT PUSH2 0x89E JUMPI JUMPDEST POP POP POP POP POP SWAP2 POP DUP1 DUP1 SLOAD DUP1 PUSH1 0x20 MUL PUSH1 0x20 ADD PUSH1 0x40 MLOAD SWAP1 DUP2 ADD PUSH1 0x40 MSTORE DUP1 SWAP3 SWAP2 SWAP1 DUP2 DUP2 MSTORE PUSH1 0x20 ADD DUP3 DUP1 SLOAD DUP1 ISZERO PUSH2 0x93A JUMPI PUSH1 0x20 MUL DUP3 ADD SWAP2 SWAP1 PUSH1 0x0 MSTORE PUSH1 0x20 PUSH1 0x0 KECCAK256 SWAP1 JUMPDEST DUP2 SLOAD DUP2 MSTORE PUSH1 0x20 ADD SWAP1 PUSH1 0x1 ADD SWAP1 DUP1 DUP4 GT PUSH2 0x926 JUMPI JUMPDEST POP POP POP POP POP SWAP1 POP SWAP2 POP SWAP2 POP SWAP2 POP SWAP2 JUMP JUMPDEST PUSH1 0x0 DUP1 PUSH1 0x0 DUP1 PUSH1 0x1 SLOAD DUP2 MSTORE PUSH1 0x20 ADD SWAP1 DUP2 MSTORE PUSH1 0x20 ADD PUSH1 0x0 KECCAK256 SWAP1 POP DUP7 DUP2 PUSH1 0x0 ADD PUSH1 0x0 PUSH2 0x100 EXP DUP2 SLOAD DUP2 PUSH20 0xFFFFFFFFFFFFFFFFFFFFFFFFFFFFFFFFFFFFFFFF MUL NOT AND SWAP1 DUP4 PUSH20 0xFFFFFFFFFFFFFFFFFFFFFFFFFFFFFFFFFFFFFFFF AND MUL OR SWAP1 SSTORE POP DUP6 DUP2 PUSH1 0x2 ADD SWAP1 DUP2 PUSH2 0x9B7 SWAP2 SWAP1 PUSH2 0x1910 JUMP JUMPDEST POP DUP5 DUP2 PUSH1 0x3 ADD DUP2 SWAP1 SSTORE POP DUP4 DUP2 PUSH1 0x4 ADD DUP2 SWAP1 SSTORE POP DUP3 DUP2 PUSH1 0x5 ADD DUP2 SWAP1 SSTORE POP PUSH1 0x1 PUSH1 0x0 DUP2 SLOAD DUP1 SWAP3 SWAP2 SWAP1 PUSH2 0x9E6 SWAP1 PUSH2 0x1548 JUMP JUMPDEST SWAP2 SWAP1 POP SSTORE POP PUSH1 0x1 DUP1 SLOAD PUSH2 0x9F9 SWAP2 SWAP1 PUSH2 0x19E2 JUMP JUMPDEST SWAP2 POP POP SWAP6 SWAP5 POP POP POP POP POP JUMP JUMPDEST PUSH1 0x0 DUP1 PUSH1 0x0 DUP4 DUP2 MSTORE PUSH1 0x20 ADD SWAP1 DUP2 MSTORE PUSH1 0x20 ADD PUSH1 0x0 KECCAK256 SWAP1 POP PUSH1 0x0 JUMPDEST DUP2 PUSH1 0x8 ADD DUP1 SLOAD SWAP1 POP DUP2 LT ISZERO PUSH2 0xB6A JUMPI CALLER PUSH20 0xFFFFFFFFFFFFFFFFFFFFFFFFFFFFFFFFFFFFFFFF AND DUP3 PUSH1 0x8 ADD DUP3 DUP2 SLOAD DUP2 LT PUSH2 0xA5A JUMPI PUSH2 0xA59 PUSH2 0x14EA JUMP JUMPDEST JUMPDEST SWAP1 PUSH1 0x0 MSTORE PUSH1 0x20 PUSH1 0x0 KECCAK256 ADD PUSH1 0x0 SWAP1 SLOAD SWAP1 PUSH2 0x100 EXP SWAP1 DIV PUSH20 0xFFFFFFFFFFFFFFFFFFFFFFFFFFFFFFFFFFFFFFFF AND PUSH20 0xFFFFFFFFFFFFFFFFFFFFFFFFFFFFFFFFFFFFFFFF AND EQ DUP1 ISZERO PUSH2 0xAAB JUMPI POP TIMESTAMP DUP3 PUSH1 0x5 ADD SLOAD EQ JUMPDEST PUSH2 0xAB4 JUMPI PUSH1 0x0 DUP1 REVERT JUMPDEST PUSH1 0x0 DUP3 PUSH1 0x7 ADD SLOAD SWAP1 POP PUSH1 0x0 DUP2 GT PUSH2 0xACA JUMPI PUSH1 0x0 DUP1 REVERT JUMPDEST PUSH1 0x0 CALLER PUSH20 0xFFFFFFFFFFFFFFFFFFFFFFFFFFFFFFFFFFFFFFFF AND DUP3 PUSH1 0x40 MLOAD PUSH2 0xAF0 SWAP1 PUSH2 0x1679 JUMP JUMPDEST PUSH1 0x0 PUSH1 0x40 MLOAD DUP1 DUP4 SUB DUP2 DUP6 DUP8 GAS CALL SWAP3 POP POP POP RETURNDATASIZE DUP1 PUSH1 0x0 DUP2 EQ PUSH2 0xB2D JUMPI PUSH1 0x40 MLOAD SWAP2 POP PUSH1 0x1F NOT PUSH1 0x3F RETURNDATASIZE ADD AND DUP3 ADD PUSH1 0x40 MSTORE RETURNDATASIZE DUP3 MSTORE RETURNDATASIZE PUSH1 0x0 PUSH1 0x20 DUP5 ADD RETURNDATACOPY PUSH2 0xB32 JUMP JUMPDEST PUSH1 0x60 SWAP2 POP JUMPDEST POP POP SWAP1 POP DUP1 ISZERO PUSH2 0xB55 JUMPI DUP2 DUP5 PUSH1 0x7 ADD SLOAD PUSH2 0xB4C SWAP2 SWAP1 PUSH2 0x19E2 JUMP JUMPDEST DUP5 PUSH1 0x7 ADD DUP2 SWAP1 SSTORE POP JUMPDEST POP POP DUP1 DUP1 PUSH2 0xB62 SWAP1 PUSH2 0x1548 JUMP JUMPDEST SWAP2 POP POP PUSH2 0xA1E JUMP JUMPDEST POP POP POP JUMP JUMPDEST PUSH1 0x1 SLOAD DUP2 JUMP JUMPDEST PUSH1 0x40 MLOAD DUP1 PUSH2 0x140 ADD PUSH1 0x40 MSTORE DUP1 PUSH1 0x0 PUSH20 0xFFFFFFFFFFFFFFFFFFFFFFFFFFFFFFFFFFFFFFFF AND DUP2 MSTORE PUSH1 0x20 ADD PUSH1 0x0 PUSH20 0xFFFFFFFFFFFFFFFFFFFFFFFFFFFFFFFFFFFFFFFF AND DUP2 MSTORE PUSH1 0x20 ADD PUSH1 0x60 DUP2 MSTORE PUSH1 0x20 ADD PUSH1 0x0 DUP2 MSTORE PUSH1 0x20 ADD PUSH1 0x0 DUP2 MSTORE PUSH1 0x20 ADD PUSH1 0x0 DUP2 MSTORE PUSH1 0x20 ADD PUSH1 0x0 DUP2 MSTORE PUSH1 0x20 ADD PUSH1 0x0 DUP2 MSTORE PUSH1 0x20 ADD PUSH1 0x60 DUP2 MSTORE PUSH1 0x20 ADD PUSH1 0x60 DUP2 MSTORE POP SWAP1 JUMP JUMPDEST PUSH1 0x0 DUP2 MLOAD SWAP1 POP SWAP2 SWAP1 POP JUMP JUMPDEST PUSH1 0x0 DUP3 DUP3 MSTORE PUSH1 0x20 DUP3 ADD SWAP1 POP SWAP3 SWAP2 POP POP JUMP JUMPDEST PUSH1 0x0 DUP2 SWAP1 POP PUSH1 0x20 DUP3 ADD SWAP1 POP SWAP2 SWAP1 POP JUMP JUMPDEST PUSH1 0x0 PUSH20 0xFFFFFFFFFFFFFFFFFFFFFFFFFFFFFFFFFFFFFFFF DUP3 AND SWAP1 POP SWAP2 SWAP1 POP JUMP JUMPDEST PUSH1 0x0 PUSH2 0xC4B DUP3 PUSH2 0xC20 JUMP JUMPDEST SWAP1 POP SWAP2 SWAP1 POP JUMP JUMPDEST PUSH2 0xC5B DUP2 PUSH2 0xC40 JUMP JUMPDEST DUP3 MSTORE POP POP JUMP JUMPDEST PUSH1 0x0 DUP2 MLOAD SWAP1 POP SWAP2 SWAP1 POP JUMP JUMPDEST PUSH1 0x0 DUP3 DUP3 MSTORE PUSH1 0x20 DUP3 ADD SWAP1 POP SWAP3 SWAP2 POP POP JUMP JUMPDEST PUSH1 0x0 JUMPDEST DUP4 DUP2 LT ISZERO PUSH2 0xC9B JUMPI DUP1 DUP3 ADD MLOAD DUP2 DUP5 ADD MSTORE PUSH1 0x20 DUP2 ADD SWAP1 POP PUSH2 0xC80 JUMP JUMPDEST PUSH1 0x0 DUP5 DUP5 ADD MSTORE POP POP POP POP JUMP JUMPDEST PUSH1 0x0 PUSH1 0x1F NOT PUSH1 0x1F DUP4 ADD AND SWAP1 POP SWAP2 SWAP1 POP JUMP JUMPDEST PUSH1 0x0 PUSH2 0xCC3 DUP3 PUSH2 0xC61 JUMP JUMPDEST PUSH2 0xCCD DUP2 DUP6 PUSH2 0xC6C JUMP JUMPDEST SWAP4 POP PUSH2 0xCDD DUP2 DUP6 PUSH1 0x20 DUP7 ADD PUSH2 0xC7D JUMP JUMPDEST PUSH2 0xCE6 DUP2 PUSH2 0xCA7 JUMP JUMPDEST DUP5 ADD SWAP2 POP POP SWAP3 SWAP2 POP POP JUMP JUMPDEST PUSH1 0x0 DUP2 SWAP1 POP SWAP2 SWAP1 POP JUMP JUMPDEST PUSH2 0xD04 DUP2 PUSH2 0xCF1 JUMP JUMPDEST DUP3 MSTORE POP POP JUMP JUMPDEST PUSH1 0x0 DUP2 MLOAD SWAP1 POP SWAP2 SWAP1 POP JUMP JUMPDEST PUSH1 0x0 DUP3 DUP3 MSTORE PUSH1 0x20 DUP3 ADD SWAP1 POP SWAP3 SWAP2 POP POP JUMP JUMPDEST PUSH1 0x0 DUP2 SWAP1 POP PUSH1 0x20 DUP3 ADD SWAP1 POP SWAP2 SWAP1 POP JUMP JUMPDEST PUSH1 0x0 PUSH2 0xD42 DUP4 DUP4 PUSH2 0xC52 JUMP JUMPDEST PUSH1 0x20 DUP4 ADD SWAP1 POP SWAP3 SWAP2 POP POP JUMP JUMPDEST PUSH1 0x0 PUSH1 0x20 DUP3 ADD SWAP1 POP SWAP2 SWAP1 POP JUMP JUMPDEST PUSH1 0x0 PUSH2 0xD66 DUP3 PUSH2 0xD0A JUMP JUMPDEST PUSH2 0xD70 DUP2 DUP6 PUSH2 0xD15 JUMP JUMPDEST SWAP4 POP PUSH2 0xD7B DUP4 PUSH2 0xD26 JUMP JUMPDEST DUP1 PUSH1 0x0 JUMPDEST DUP4 DUP2 LT ISZERO PUSH2 0xDAC JUMPI DUP2 MLOAD PUSH2 0xD93 DUP9 DUP3 PUSH2 0xD36 JUMP JUMPDEST SWAP8 POP PUSH2 0xD9E DUP4 PUSH2 0xD4E JUMP JUMPDEST SWAP3 POP POP PUSH1 0x1 DUP2 ADD SWAP1 POP PUSH2 0xD7F JUMP JUMPDEST POP DUP6 SWAP4 POP POP POP POP SWAP3 SWAP2 POP POP JUMP JUMPDEST PUSH1 0x0 DUP2 MLOAD SWAP1 POP SWAP2 SWAP1 POP JUMP JUMPDEST PUSH1 0x0 DUP3 DUP3 MSTORE PUSH1 0x20 DUP3 ADD SWAP1 POP SWAP3 SWAP2 POP POP JUMP JUMPDEST PUSH1 0x0 DUP2 SWAP1 POP PUSH1 0x20 DUP3 ADD SWAP1 POP SWAP2 SWAP1 POP JUMP JUMPDEST PUSH1 0x0 PUSH2 0xDF1 DUP4 DUP4 PUSH2 0xCFB JUMP JUMPDEST PUSH1 0x20 DUP4 ADD SWAP1 POP SWAP3 SWAP2 POP POP JUMP JUMPDEST PUSH1 0x0 PUSH1 0x20 DUP3 ADD SWAP1 POP SWAP2 SWAP1 POP JUMP JUMPDEST PUSH1 0x0 PUSH2 0xE15 DUP3 PUSH2 0xDB9 JUMP JUMPDEST PUSH2 0xE1F DUP2 DUP6 PUSH2 0xDC4 JUMP JUMPDEST SWAP4 POP PUSH2 0xE2A DUP4 PUSH2 0xDD5 JUMP JUMPDEST DUP1 PUSH1 0x0 JUMPDEST DUP4 DUP2 LT ISZERO PUSH2 0xE5B JUMPI DUP2 MLOAD PUSH2 0xE42 DUP9 DUP3 PUSH2 0xDE5 JUMP JUMPDEST SWAP8 POP PUSH2 0xE4D DUP4 PUSH2 0xDFD JUMP JUMPDEST SWAP3 POP POP PUSH1 0x1 DUP2 ADD SWAP1 POP PUSH2 0xE2E JUMP JUMPDEST POP DUP6 SWAP4 POP POP POP POP SWAP3 SWAP2 POP POP JUMP JUMPDEST PUSH1 0x0 PUSH2 0x140 DUP4 ADD PUSH1 0x0 DUP4 ADD MLOAD PUSH2 0xE81 PUSH1 0x0 DUP7 ADD DUP3 PUSH2 0xC52 JUMP JUMPDEST POP PUSH1 0x20 DUP4 ADD MLOAD PUSH2 0xE94 PUSH1 0x20 DUP7 ADD DUP3 PUSH2 0xC52 JUMP JUMPDEST POP PUSH1 0x40 DUP4 ADD MLOAD DUP5 DUP3 SUB PUSH1 0x40 DUP7 ADD MSTORE PUSH2 0xEAC DUP3 DUP3 PUSH2 0xCB8 JUMP JUMPDEST SWAP2 POP POP PUSH1 0x60 DUP4 ADD MLOAD PUSH2 0xEC1 PUSH1 0x60 DUP7 ADD DUP3 PUSH2 0xCFB JUMP JUMPDEST POP PUSH1 0x80 DUP4 ADD MLOAD PUSH2 0xED4 PUSH1 0x80 DUP7 ADD DUP3 PUSH2 0xCFB JUMP JUMPDEST POP PUSH1 0xA0 DUP4 ADD MLOAD PUSH2 0xEE7 PUSH1 0xA0 DUP7 ADD DUP3 PUSH2 0xCFB JUMP JUMPDEST POP PUSH1 0xC0 DUP4 ADD MLOAD PUSH2 0xEFA PUSH1 0xC0 DUP7 ADD DUP3 PUSH2 0xCFB JUMP JUMPDEST POP PUSH1 0xE0 DUP4 ADD MLOAD PUSH2 0xF0D PUSH1 0xE0 DUP7 ADD DUP3 PUSH2 0xCFB JUMP JUMPDEST POP PUSH2 0x100 DUP4 ADD MLOAD DUP5 DUP3 SUB PUSH2 0x100 DUP7 ADD MSTORE PUSH2 0xF27 DUP3 DUP3 PUSH2 0xD5B JUMP JUMPDEST SWAP2 POP POP PUSH2 0x120 DUP4 ADD MLOAD DUP5 DUP3 SUB PUSH2 0x120 DUP7 ADD MSTORE PUSH2 0xF43 DUP3 DUP3 PUSH2 0xE0A JUMP JUMPDEST SWAP2 POP POP DUP1 SWAP2 POP POP SWAP3 SWAP2 POP POP JUMP JUMPDEST PUSH1 0x0 PUSH2 0xF5C DUP4 DUP4 PUSH2 0xE68 JUMP JUMPDEST SWAP1 POP SWAP3 SWAP2 POP POP JUMP JUMPDEST PUSH1 0x0 PUSH1 0x20 DUP3 ADD SWAP1 POP SWAP2 SWAP1 POP JUMP JUMPDEST PUSH1 0x0 PUSH2 0xF7C DUP3 PUSH2 0xBF4 JUMP JUMPDEST PUSH2 0xF86 DUP2 DUP6 PUSH2 0xBFF JUMP JUMPDEST SWAP4 POP DUP4 PUSH1 0x20 DUP3 MUL DUP6 ADD PUSH2 0xF98 DUP6 PUSH2 0xC10 JUMP JUMPDEST DUP1 PUSH1 0x0 JUMPDEST DUP6 DUP2 LT ISZERO PUSH2 0xFD4 JUMPI DUP5 DUP5 SUB DUP10 MSTORE DUP2 MLOAD PUSH2 0xFB5 DUP6 DUP3 PUSH2 0xF50 JUMP JUMPDEST SWAP5 POP PUSH2 0xFC0 DUP4 PUSH2 0xF64 JUMP JUMPDEST SWAP3 POP PUSH1 0x20 DUP11 ADD SWAP10 POP POP PUSH1 0x1 DUP2 ADD SWAP1 POP PUSH2 0xF9C JUMP JUMPDEST POP DUP3 SWAP8 POP DUP8 SWAP6 POP POP POP POP POP POP SWAP3 SWAP2 POP POP JUMP JUMPDEST PUSH1 0x0 PUSH1 0x20 DUP3 ADD SWAP1 POP DUP2 DUP2 SUB PUSH1 0x0 DUP4 ADD MSTORE PUSH2 0x1000 DUP2 DUP5 PUSH2 0xF71 JUMP JUMPDEST SWAP1 POP SWAP3 SWAP2 POP POP JUMP JUMPDEST PUSH1 0x0 PUSH1 0x40 MLOAD SWAP1 POP SWAP1 JUMP JUMPDEST PUSH1 0x0 DUP1 REVERT JUMPDEST PUSH1 0x0 DUP1 REVERT JUMPDEST PUSH2 0x1025 DUP2 PUSH2 0xCF1 JUMP JUMPDEST DUP2 EQ PUSH2 0x1030 JUMPI PUSH1 0x0 DUP1 REVERT JUMPDEST POP JUMP JUMPDEST PUSH1 0x0 DUP2 CALLDATALOAD SWAP1 POP PUSH2 0x1042 DUP2 PUSH2 0x101C JUMP JUMPDEST SWAP3 SWAP2 POP POP JUMP JUMPDEST PUSH1 0x0 PUSH1 0x20 DUP3 DUP5 SUB SLT ISZERO PUSH2 0x105E JUMPI PUSH2 0x105D PUSH2 0x1012 JUMP JUMPDEST JUMPDEST PUSH1 0x0 PUSH2 0x106C DUP5 DUP3 DUP6 ADD PUSH2 0x1033 JUMP JUMPDEST SWAP2 POP POP SWAP3 SWAP2 POP POP JUMP JUMPDEST PUSH2 0x107E DUP2 PUSH2 0xC40 JUMP JUMPDEST DUP3 MSTORE POP POP JUMP JUMPDEST PUSH1 0x0 DUP3 DUP3 MSTORE PUSH1 0x20 DUP3 ADD SWAP1 POP SWAP3 SWAP2 POP POP JUMP JUMPDEST PUSH1 0x0 PUSH2 0x10A0 DUP3 PUSH2 0xC61 JUMP JUMPDEST PUSH2 0x10AA DUP2 DUP6 PUSH2 0x1084 JUMP JUMPDEST SWAP4 POP PUSH2 0x10BA DUP2 DUP6 PUSH1 0x20 DUP7 ADD PUSH2 0xC7D JUMP JUMPDEST PUSH2 0x10C3 DUP2 PUSH2 0xCA7 JUMP JUMPDEST DUP5 ADD SWAP2 POP POP SWAP3 SWAP2 POP POP JUMP JUMPDEST PUSH2 0x10D7 DUP2 PUSH2 0xCF1 JUMP JUMPDEST DUP3 MSTORE POP POP JUMP JUMPDEST PUSH1 0x0 PUSH2 0x100 DUP3 ADD SWAP1 POP PUSH2 0x10F3 PUSH1 0x0 DUP4 ADD DUP12 PUSH2 0x1075 JUMP JUMPDEST PUSH2 0x1100 PUSH1 0x20 DUP4 ADD DUP11 PUSH2 0x1075 JUMP JUMPDEST DUP2 DUP2 SUB PUSH1 0x40 DUP4 ADD MSTORE PUSH2 0x1112 DUP2 DUP10 PUSH2 0x1095 JUMP JUMPDEST SWAP1 POP PUSH2 0x1121 PUSH1 0x60 DUP4 ADD DUP9 PUSH2 0x10CE JUMP JUMPDEST PUSH2 0x112E PUSH1 0x80 DUP4 ADD DUP8 PUSH2 0x10CE JUMP JUMPDEST PUSH2 0x113B PUSH1 0xA0 DUP4 ADD DUP7 PUSH2 0x10CE JUMP JUMPDEST PUSH2 0x1148 PUSH1 0xC0 DUP4 ADD DUP6 PUSH2 0x10CE JUMP JUMPDEST PUSH2 0x1155 PUSH1 0xE0 DUP4 ADD DUP5 PUSH2 0x10CE JUMP JUMPDEST SWAP10 SWAP9 POP POP POP POP POP POP POP POP POP JUMP JUMPDEST PUSH1 0x0 DUP3 DUP3 MSTORE PUSH1 0x20 DUP3 ADD SWAP1 POP SWAP3 SWAP2 POP POP JUMP JUMPDEST PUSH1 0x0 PUSH2 0x117E DUP3 PUSH2 0xD0A JUMP JUMPDEST PUSH2 0x1188 DUP2 DUP6 PUSH2 0x1162 JUMP JUMPDEST SWAP4 POP PUSH2 0x1193 DUP4 PUSH2 0xD26 JUMP JUMPDEST DUP1 PUSH1 0x0 JUMPDEST DUP4 DUP2 LT ISZERO PUSH2 0x11C4 JUMPI DUP2 MLOAD PUSH2 0x11AB DUP9 DUP3 PUSH2 0xD36 JUMP JUMPDEST SWAP8 POP PUSH2 0x11B6 DUP4 PUSH2 0xD4E JUMP JUMPDEST SWAP3 POP POP PUSH1 0x1 DUP2 ADD SWAP1 POP PUSH2 0x1197 JUMP JUMPDEST POP DUP6 SWAP4 POP POP POP POP SWAP3 SWAP2 POP POP JUMP JUMPDEST PUSH1 0x0 DUP3 DUP3 MSTORE PUSH1 0x20 DUP3 ADD SWAP1 POP SWAP3 SWAP2 POP POP JUMP JUMPDEST PUSH1 0x0 PUSH2 0x11ED DUP3 PUSH2 0xDB9 JUMP JUMPDEST PUSH2 0x11F7 DUP2 DUP6 PUSH2 0x11D1 JUMP JUMPDEST SWAP4 POP PUSH2 0x1202 DUP4 PUSH2 0xDD5 JUMP JUMPDEST DUP1 PUSH1 0x0 JUMPDEST DUP4 DUP2 LT ISZERO PUSH2 0x1233 JUMPI DUP2 MLOAD PUSH2 0x121A DUP9 DUP3 PUSH2 0xDE5 JUMP JUMPDEST SWAP8 POP PUSH2 0x1225 DUP4 PUSH2 0xDFD JUMP JUMPDEST SWAP3 POP POP PUSH1 0x1 DUP2 ADD SWAP1 POP PUSH2 0x1206 JUMP JUMPDEST POP DUP6 SWAP4 POP POP POP POP SWAP3 SWAP2 POP POP JUMP JUMPDEST PUSH1 0x0 PUSH1 0x40 DUP3 ADD SWAP1 POP DUP2 DUP2 SUB PUSH1 0x0 DUP4 ADD MSTORE PUSH2 0x125A DUP2 DUP6 PUSH2 0x1173 JUMP JUMPDEST SWAP1 POP DUP2 DUP2 SUB PUSH1 0x20 DUP4 ADD MSTORE PUSH2 0x126E DUP2 DUP5 PUSH2 0x11E2 JUMP JUMPDEST SWAP1 POP SWAP4 SWAP3 POP POP POP JUMP JUMPDEST PUSH2 0x1280 DUP2 PUSH2 0xC40 JUMP JUMPDEST DUP2 EQ PUSH2 0x128B JUMPI PUSH1 0x0 DUP1 REVERT JUMPDEST POP JUMP JUMPDEST PUSH1 0x0 DUP2 CALLDATALOAD SWAP1 POP PUSH2 0x129D DUP2 PUSH2 0x1277 JUMP JUMPDEST SWAP3 SWAP2 POP POP JUMP JUMPDEST PUSH1 0x0 DUP1 REVERT JUMPDEST PUSH1 0x0 DUP1 REVERT JUMPDEST PUSH32 0x4E487B7100000000000000000000000000000000000000000000000000000000 PUSH1 0x0 MSTORE PUSH1 0x41 PUSH1 0x4 MSTORE PUSH1 0x24 PUSH1 0x0 REVERT JUMPDEST PUSH2 0x12E5 DUP3 PUSH2 0xCA7 JUMP JUMPDEST DUP2 ADD DUP2 DUP2 LT PUSH8 0xFFFFFFFFFFFFFFFF DUP3 GT OR ISZERO PUSH2 0x1304 JUMPI PUSH2 0x1303 PUSH2 0x12AD JUMP JUMPDEST JUMPDEST DUP1 PUSH1 0x40 MSTORE POP POP POP JUMP JUMPDEST PUSH1 0x0 PUSH2 0x1317 PUSH2 0x1008 JUMP JUMPDEST SWAP1 POP PUSH2 0x1323 DUP3 DUP3 PUSH2 0x12DC JUMP JUMPDEST SWAP2 SWAP1 POP JUMP JUMPDEST PUSH1 0x0 PUSH8 0xFFFFFFFFFFFFFFFF DUP3 GT ISZERO PUSH2 0x1343 JUMPI PUSH2 0x1342 PUSH2 0x12AD JUMP JUMPDEST JUMPDEST PUSH2 0x134C DUP3 PUSH2 0xCA7 JUMP JUMPDEST SWAP1 POP PUSH1 0x20 DUP2 ADD SWAP1 POP SWAP2 SWAP1 POP JUMP JUMPDEST DUP3 DUP2 DUP4 CALLDATACOPY PUSH1 0x0 DUP4 DUP4 ADD MSTORE POP POP POP JUMP JUMPDEST PUSH1 0x0 PUSH2 0x137B PUSH2 0x1376 DUP5 PUSH2 0x1328 JUMP JUMPDEST PUSH2 0x130D JUMP JUMPDEST SWAP1 POP DUP3 DUP2 MSTORE PUSH1 0x20 DUP2 ADD DUP5 DUP5 DUP5 ADD GT ISZERO PUSH2 0x1397 JUMPI PUSH2 0x1396 PUSH2 0x12A8 JUMP JUMPDEST JUMPDEST PUSH2 0x13A2 DUP5 DUP3 DUP6 PUSH2 0x1359 JUMP JUMPDEST POP SWAP4 SWAP3 POP POP POP JUMP JUMPDEST PUSH1 0x0 DUP3 PUSH1 0x1F DUP4 ADD SLT PUSH2 0x13BF JUMPI PUSH2 0x13BE PUSH2 0x12A3 JUMP JUMPDEST JUMPDEST DUP2 CALLDATALOAD PUSH2 0x13CF DUP5 DUP3 PUSH1 0x20 DUP7 ADD PUSH2 0x1368 JUMP JUMPDEST SWAP2 POP POP SWAP3 SWAP2 POP POP JUMP JUMPDEST PUSH1 0x0 DUP1 PUSH1 0x0 DUP1 PUSH1 0x0 PUSH1 0xA0 DUP7 DUP9 SUB SLT ISZERO PUSH2 0x13F4 JUMPI PUSH2 0x13F3 PUSH2 0x1012 JUMP JUMPDEST JUMPDEST PUSH1 0x0 PUSH2 0x1402 DUP9 DUP3 DUP10 ADD PUSH2 0x128E JUMP JUMPDEST SWAP6 POP POP PUSH1 0x20 DUP7 ADD CALLDATALOAD PUSH8 0xFFFFFFFFFFFFFFFF DUP2 GT ISZERO PUSH2 0x1423 JUMPI PUSH2 0x1422 PUSH2 0x1017 JUMP JUMPDEST JUMPDEST PUSH2 0x142F DUP9 DUP3 DUP10 ADD PUSH2 0x13AA JUMP JUMPDEST SWAP5 POP POP PUSH1 0x40 PUSH2 0x1440 DUP9 DUP3 DUP10 ADD PUSH2 0x1033 JUMP JUMPDEST SWAP4 POP POP PUSH1 0x60 PUSH2 0x1451 DUP9 DUP3 DUP10 ADD PUSH2 0x1033 JUMP JUMPDEST SWAP3 POP POP PUSH1 0x80 PUSH2 0x1462 DUP9 DUP3 DUP10 ADD PUSH2 0x1033 JUMP JUMPDEST SWAP2 POP POP SWAP3 SWAP6 POP SWAP3 SWAP6 SWAP1 SWAP4 POP JUMP JUMPDEST PUSH1 0x0 PUSH1 0x20 DUP3 ADD SWAP1 POP PUSH2 0x1484 PUSH1 0x0 DUP4 ADD DUP5 PUSH2 0x10CE JUMP JUMPDEST SWAP3 SWAP2 POP POP JUMP JUMPDEST PUSH32 0x4E487B7100000000000000000000000000000000000000000000000000000000 PUSH1 0x0 MSTORE PUSH1 0x22 PUSH1 0x4 MSTORE PUSH1 0x24 PUSH1 0x0 REVERT JUMPDEST PUSH1 0x0 PUSH1 0x2 DUP3 DIV SWAP1 POP PUSH1 0x1 DUP3 AND DUP1 PUSH2 0x14D1 JUMPI PUSH1 0x7F DUP3 AND SWAP2 POP JUMPDEST PUSH1 0x20 DUP3 LT DUP2 SUB PUSH2 0x14E4 JUMPI PUSH2 0x14E3 PUSH2 0x148A JUMP JUMPDEST JUMPDEST POP SWAP2 SWAP1 POP JUMP JUMPDEST PUSH32 0x4E487B7100000000000000000000000000000000000000000000000000000000 PUSH1 0x0 MSTORE PUSH1 0x32 PUSH1 0x4 MSTORE PUSH1 0x24 PUSH1 0x0 REVERT JUMPDEST PUSH32 0x4E487B7100000000000000000000000000000000000000000000000000000000 PUSH1 0x0 MSTORE PUSH1 0x11 PUSH1 0x4 MSTORE PUSH1 0x24 PUSH1 0x0 REVERT JUMPDEST PUSH1 0x0 PUSH2 0x1553 DUP3 PUSH2 0xCF1 JUMP JUMPDEST SWAP2 POP PUSH32 0xFFFFFFFFFFFFFFFFFFFFFFFFFFFFFFFFFFFFFFFFFFFFFFFFFFFFFFFFFFFFFFFF DUP3 SUB PUSH2 0x1585 JUMPI PUSH2 0x1584 PUSH2 0x1519 JUMP JUMPDEST JUMPDEST PUSH1 0x1 DUP3 ADD SWAP1 POP SWAP2 SWAP1 POP JUMP JUMPDEST PUSH32 0x546865206465706F736974656420616D6F756E742073686F756C642062652065 PUSH1 0x0 DUP3 ADD MSTORE PUSH32 0x7175616C20746F206F722067726561746572207468616E207072696E63697061 PUSH1 0x20 DUP3 ADD MSTORE PUSH32 0x6C00000000000000000000000000000000000000000000000000000000000000 PUSH1 0x40 DUP3 ADD MSTORE POP JUMP JUMPDEST PUSH1 0x0 PUSH2 0x1612 PUSH1 0x41 DUP4 PUSH2 0x1084 JUMP JUMPDEST SWAP2 POP PUSH2 0x161D DUP3 PUSH2 0x1590 JUMP JUMPDEST PUSH1 0x60 DUP3 ADD SWAP1 POP SWAP2 SWAP1 POP JUMP JUMPDEST PUSH1 0x0 PUSH1 0x20 DUP3 ADD SWAP1 POP DUP2 DUP2 SUB PUSH1 0x0 DUP4 ADD MSTORE PUSH2 0x1641 DUP2 PUSH2 0x1605 JUMP JUMPDEST SWAP1 POP SWAP2 SWAP1 POP JUMP JUMPDEST PUSH1 0x0 DUP2 SWAP1 POP SWAP3 SWAP2 POP POP JUMP JUMPDEST POP JUMP JUMPDEST PUSH1 0x0 PUSH2 0x1663 PUSH1 0x0 DUP4 PUSH2 0x1648 JUMP JUMPDEST SWAP2 POP PUSH2 0x166E DUP3 PUSH2 0x1653 JUMP JUMPDEST PUSH1 0x0 DUP3 ADD SWAP1 POP SWAP2 SWAP1 POP JUMP JUMPDEST PUSH1 0x0 PUSH2 0x1684 DUP3 PUSH2 0x1656 JUMP JUMPDEST SWAP2 POP DUP2 SWAP1 POP SWAP2 SWAP1 POP JUMP JUMPDEST PUSH1 0x0 PUSH2 0x1699 DUP3 PUSH2 0xCF1 JUMP JUMPDEST SWAP2 POP PUSH2 0x16A4 DUP4 PUSH2 0xCF1 JUMP JUMPDEST SWAP3 POP DUP3 DUP3 MUL PUSH2 0x16B2 DUP2 PUSH2 0xCF1 JUMP JUMPDEST SWAP2 POP DUP3 DUP3 DIV DUP5 EQ DUP4 ISZERO OR PUSH2 0x16C9 JUMPI PUSH2 0x16C8 PUSH2 0x1519 JUMP JUMPDEST JUMPDEST POP SWAP3 SWAP2 POP POP JUMP JUMPDEST PUSH32 0x4E487B7100000000000000000000000000000000000000000000000000000000 PUSH1 0x0 MSTORE PUSH1 0x12 PUSH1 0x4 MSTORE PUSH1 0x24 PUSH1 0x0 REVERT JUMPDEST PUSH1 0x0 PUSH2 0x170A DUP3 PUSH2 0xCF1 JUMP JUMPDEST SWAP2 POP PUSH2 0x1715 DUP4 PUSH2 0xCF1 JUMP JUMPDEST SWAP3 POP DUP3 PUSH2 0x1725 JUMPI PUSH2 0x1724 PUSH2 0x16D0 JUMP JUMPDEST JUMPDEST DUP3 DUP3 DIV SWAP1 POP SWAP3 SWAP2 POP POP JUMP JUMPDEST PUSH1 0x0 PUSH2 0x173B DUP3 PUSH2 0xCF1 JUMP JUMPDEST SWAP2 POP PUSH2 0x1746 DUP4 PUSH2 0xCF1 JUMP JUMPDEST SWAP3 POP DUP3 DUP3 ADD SWAP1 POP DUP1 DUP3 GT ISZERO PUSH2 0x175E JUMPI PUSH2 0x175D PUSH2 0x1519 JUMP JUMPDEST JUMPDEST SWAP3 SWAP2 POP POP JUMP JUMPDEST PUSH1 0x0 DUP2 SWAP1 POP DUP2 PUSH1 0x0 MSTORE PUSH1 0x20 PUSH1 0x0 KECCAK256 SWAP1 POP SWAP2 SWAP1 POP JUMP JUMPDEST PUSH1 0x0 PUSH1 0x20 PUSH1 0x1F DUP4 ADD DIV SWAP1 POP SWAP2 SWAP1 POP JUMP JUMPDEST PUSH1 0x0 DUP3 DUP3 SHL SWAP1 POP SWAP3 SWAP2 POP POP JUMP JUMPDEST PUSH1 0x0 PUSH1 0x8 DUP4 MUL PUSH2 0x17C6 PUSH32 0xFFFFFFFFFFFFFFFFFFFFFFFFFFFFFFFFFFFFFFFFFFFFFFFFFFFFFFFFFFFFFFFF DUP3 PUSH2 0x1789 JUMP JUMPDEST PUSH2 0x17D0 DUP7 DUP4 PUSH2 0x1789 JUMP JUMPDEST SWAP6 POP DUP1 NOT DUP5 AND SWAP4 POP DUP1 DUP7 AND DUP5 OR SWAP3 POP POP POP SWAP4 SWAP3 POP POP POP JUMP JUMPDEST PUSH1 0x0 DUP2 SWAP1 POP SWAP2 SWAP1 POP JUMP JUMPDEST PUSH1 0x0 PUSH2 0x180D PUSH2 0x1808 PUSH2 0x1803 DUP5 PUSH2 0xCF1 JUMP JUMPDEST PUSH2 0x17E8 JUMP JUMPDEST PUSH2 0xCF1 JUMP JUMPDEST SWAP1 POP SWAP2 SWAP1 POP JUMP JUMPDEST PUSH1 0x0 DUP2 SWAP1 POP SWAP2 SWAP1 POP JUMP JUMPDEST PUSH2 0x1827 DUP4 PUSH2 0x17F2 JUMP JUMPDEST PUSH2 0x183B PUSH2 0x1833 DUP3 PUSH2 0x1814 JUMP JUMPDEST DUP5 DUP5 SLOAD PUSH2 0x1796 JUMP JUMPDEST DUP3 SSTORE POP POP POP POP JUMP JUMPDEST PUSH1 0x0 SWAP1 JUMP JUMPDEST PUSH2 0x1850 PUSH2 0x1843 JUMP JUMPDEST PUSH2 0x185B DUP2 DUP5 DUP5 PUSH2 0x181E JUMP JUMPDEST POP POP POP JUMP JUMPDEST JUMPDEST DUP2 DUP2 LT ISZERO PUSH2 0x187F JUMPI PUSH2 0x1874 PUSH1 0x0 DUP3 PUSH2 0x1848 JUMP JUMPDEST PUSH1 0x1 DUP2 ADD SWAP1 POP PUSH2 0x1861 JUMP JUMPDEST POP POP JUMP JUMPDEST PUSH1 0x1F DUP3 GT ISZERO PUSH2 0x18C4 JUMPI PUSH2 0x1895 DUP2 PUSH2 0x1764 JUMP JUMPDEST PUSH2 0x189E DUP5 PUSH2 0x1779 JUMP JUMPDEST DUP2 ADD PUSH1 0x20 DUP6 LT ISZERO PUSH2 0x18AD JUMPI DUP2 SWAP1 POP JUMPDEST PUSH2 0x18C1 PUSH2 0x18B9 DUP6 PUSH2 0x1779 JUMP JUMPDEST DUP4 ADD DUP3 PUSH2 0x1860 JUMP JUMPDEST POP POP JUMPDEST POP POP POP JUMP JUMPDEST PUSH1 0x0 DUP3 DUP3 SHR SWAP1 POP SWAP3 SWAP2 POP POP JUMP JUMPDEST PUSH1 0x0 PUSH2 0x18E7 PUSH1 0x0 NOT DUP5 PUSH1 0x8 MUL PUSH2 0x18C9 JUMP JUMPDEST NOT DUP1 DUP4 AND SWAP2 POP POP SWAP3 SWAP2 POP POP JUMP JUMPDEST PUSH1 0x0 PUSH2 0x1900 DUP4 DUP4 PUSH2 0x18D6 JUMP JUMPDEST SWAP2 POP DUP3 PUSH1 0x2 MUL DUP3 OR SWAP1 POP SWAP3 SWAP2 POP POP JUMP JUMPDEST PUSH2 0x1919 DUP3 PUSH2 0xC61 JUMP JUMPDEST PUSH8 0xFFFFFFFFFFFFFFFF DUP2 GT ISZERO PUSH2 0x1932 JUMPI PUSH2 0x1931 PUSH2 0x12AD JUMP JUMPDEST JUMPDEST PUSH2 0x193C DUP3 SLOAD PUSH2 0x14B9 JUMP JUMPDEST PUSH2 0x1947 DUP3 DUP3 DUP6 PUSH2 0x1883 JUMP JUMPDEST PUSH1 0x0 PUSH1 0x20 SWAP1 POP PUSH1 0x1F DUP4 GT PUSH1 0x1 DUP2 EQ PUSH2 0x197A JUMPI PUSH1 0x0 DUP5 ISZERO PUSH2 0x1968 JUMPI DUP3 DUP8 ADD MLOAD SWAP1 POP JUMPDEST PUSH2 0x1972 DUP6 DUP3 PUSH2 0x18F4 JUMP JUMPDEST DUP7 SSTORE POP PUSH2 0x19DA JUMP JUMPDEST PUSH1 0x1F NOT DUP5 AND PUSH2 0x1988 DUP7 PUSH2 0x1764 JUMP JUMPDEST PUSH1 0x0 JUMPDEST DUP3 DUP2 LT ISZERO PUSH2 0x19B0 JUMPI DUP5 DUP10 ADD MLOAD DUP3 SSTORE PUSH1 0x1 DUP3 ADD SWAP2 POP PUSH1 0x20 DUP6 ADD SWAP5 POP PUSH1 0x20 DUP2 ADD SWAP1 POP PUSH2 0x198B JUMP JUMPDEST DUP7 DUP4 LT ISZERO PUSH2 0x19CD JUMPI DUP5 DUP10 ADD MLOAD PUSH2 0x19C9 PUSH1 0x1F DUP10 AND DUP3 PUSH2 0x18D6 JUMP JUMPDEST DUP4 SSTORE POP JUMPDEST PUSH1 0x1 PUSH1 0x2 DUP9 MUL ADD DUP9 SSTORE POP POP POP JUMPDEST POP POP POP POP POP POP JUMP JUMPDEST PUSH1 0x0 PUSH2 0x19ED DUP3 PUSH2 0xCF1 JUMP JUMPDEST SWAP2 POP PUSH2 0x19F8 DUP4 PUSH2 0xCF1 JUMP JUMPDEST SWAP3 POP DUP3 DUP3 SUB SWAP1 POP DUP2 DUP2 GT ISZERO PUSH2 0x1A10 JUMPI PUSH2 0x1A0F PUSH2 0x1519 JUMP JUMPDEST JUMPDEST SWAP3 SWAP2 POP POP JUMP INVALID LOG2 PUSH5 0x6970667358 0x22 SLT KECCAK256 0xBD SHL BYTE 0xBE 0xBC SDIV 0xA8 LOG0 CREATE2 0xC8 0xC6 LT SELFDESTRUCT 0xB4 KECCAK256 0xB5 CREATE BASEFEE 0x2C 0xA8 MOD CREATE2 0xAA DUP2 PUSH26 0x3A45C9B661AF8F64736F6C634300081200330000000000000000 "
		},
		"gasEstimates": {
			"creation": {
				"codeDepositCost": "1346400",
				"executionCost": "6409",
				"totalCost": "1352809"
			},
			"external": {
				"createFD(address,string,uint256,uint256,uint256)": "infinite",
				"fds(uint256)": "infinite",
				"getCustomers(uint256)": "infinite",
				"getFDs()": "infinite",
				"getMaturityAmount(uint256)": "infinite",
				"numberOfFds()": "2495",
				"subscribeFD(uint256)": "infinite"
			}
		},
		"methodIdentifiers": {
			"createFD(address,string,uint256,uint256,uint256)": "929cf4f1",
			"fds(uint256)": "76cc5bde",
			"getCustomers(uint256)": "850da4d8",
			"getFDs()": "357fbffb",
			"getMaturityAmount(uint256)": "cadef905",
			"numberOfFds()": "e7cc5fcf",
			"subscribeFD(uint256)": "43aec97d"
		}
	},
	"abi": [
		{
			"inputs": [
				{
					"internalType": "address",
					"name": "_creator",
					"type": "address"
				},
				{
					"internalType": "string",
					"name": "_title",
					"type": "string"
				},
				{
					"internalType": "uint256",
					"name": "_principal",
					"type": "uint256"
				},
				{
					"internalType": "uint256",
					"name": "_rate",
					"type": "uint256"
				},
				{
					"internalType": "uint256",
					"name": "_time",
					"type": "uint256"
				}
			],
			"name": "createFD",
			"outputs": [
				{
					"internalType": "uint256",
					"name": "",
					"type": "uint256"
				}
			],
			"stateMutability": "nonpayable",
			"type": "function"
		},
		{
			"inputs": [
				{
					"internalType": "uint256",
					"name": "",
					"type": "uint256"
				}
			],
			"name": "fds",
			"outputs": [
				{
					"internalType": "address",
					"name": "creator",
					"type": "address"
				},
				{
					"internalType": "address",
					"name": "customer",
					"type": "address"
				},
				{
					"internalType": "string",
					"name": "title",
					"type": "string"
				},
				{
					"internalType": "uint256",
					"name": "principal",
					"type": "uint256"
				},
				{
					"internalType": "uint256",
					"name": "rate",
					"type": "uint256"
				},
				{
					"internalType": "uint256",
					"name": "time",
					"type": "uint256"
				},
				{
					"internalType": "uint256",
					"name": "interest",
					"type": "uint256"
				},
				{
					"internalType": "uint256",
					"name": "amount",
					"type": "uint256"
				}
			],
			"stateMutability": "view",
			"type": "function"
		},
		{
			"inputs": [
				{
					"internalType": "uint256",
					"name": "_id",
					"type": "uint256"
				}
			],
			"name": "getCustomers",
			"outputs": [
				{
					"internalType": "address[]",
					"name": "",
					"type": "address[]"
				},
				{
					"internalType": "uint256[]",
					"name": "",
					"type": "uint256[]"
				}
			],
			"stateMutability": "view",
			"type": "function"
		},
		{
			"inputs": [],
			"name": "getFDs",
			"outputs": [
				{
					"components": [
						{
							"internalType": "address",
							"name": "creator",
							"type": "address"
						},
						{
							"internalType": "address",
							"name": "customer",
							"type": "address"
						},
						{
							"internalType": "string",
							"name": "title",
							"type": "string"
						},
						{
							"internalType": "uint256",
							"name": "principal",
							"type": "uint256"
						},
						{
							"internalType": "uint256",
							"name": "rate",
							"type": "uint256"
						},
						{
							"internalType": "uint256",
							"name": "time",
							"type": "uint256"
						},
						{
							"internalType": "uint256",
							"name": "interest",
							"type": "uint256"
						},
						{
							"internalType": "uint256",
							"name": "amount",
							"type": "uint256"
						},
						{
							"internalType": "address[]",
							"name": "customers",
							"type": "address[]"
						},
						{
							"internalType": "uint256[]",
							"name": "amountCollected",
							"type": "uint256[]"
						}
					],
					"internalType": "struct FixedDeposit.FD[]",
					"name": "",
					"type": "tuple[]"
				}
			],
			"stateMutability": "view",
			"type": "function"
		},
		{
			"inputs": [
				{
					"internalType": "uint256",
					"name": "_id",
					"type": "uint256"
				}
			],
			"name": "getMaturityAmount",
			"outputs": [],
			"stateMutability": "payable",
			"type": "function"
		},
		{
			"inputs": [],
			"name": "numberOfFds",
			"outputs": [
				{
					"internalType": "uint256",
					"name": "",
					"type": "uint256"
				}
			],
			"stateMutability": "view",
			"type": "function"
		},
		{
			"inputs": [
				{
					"internalType": "uint256",
					"name": "_id",
					"type": "uint256"
				}
			],
			"name": "subscribeFD",
			"outputs": [],
			"stateMutability": "payable",
			"type": "function"
		}
	]
}